{
  "_format": "hh-sol-artifact-1",
  "contractName": "Marketplace",
  "sourceName": "contracts/Marketplace.sol",
  "abi": [
    {
      "anonymous": false,
      "inputs": [
        {
          "indexed": true,
          "internalType": "address",
          "name": "collection",
          "type": "address"
        },
        {
          "indexed": true,
          "internalType": "uint256",
          "name": "tokenId",
          "type": "uint256"
        },
        {
          "indexed": false,
          "internalType": "address",
          "name": "seller",
          "type": "address"
        },
        {
          "indexed": false,
          "internalType": "uint256",
          "name": "price",
          "type": "uint256"
        }
      ],
      "name": "NFTListed",
      "type": "event"
    },
    {
      "anonymous": false,
      "inputs": [
        {
          "indexed": true,
          "internalType": "address",
          "name": "collection",
          "type": "address"
        },
        {
          "indexed": true,
          "internalType": "uint256",
          "name": "tokenId",
          "type": "uint256"
        },
        {
          "indexed": false,
          "internalType": "address",
          "name": "buyer",
          "type": "address"
        },
        {
          "indexed": false,
          "internalType": "uint256",
          "name": "price",
          "type": "uint256"
        }
      ],
      "name": "NFTSold",
      "type": "event"
    },
    {
      "inputs": [
        {
          "internalType": "address",
          "name": "collection",
          "type": "address"
        },
        {
          "internalType": "uint256",
          "name": "tokenId",
          "type": "uint256"
        }
      ],
      "name": "buyNFT",
      "outputs": [],
      "stateMutability": "payable",
      "type": "function"
    },
    {
      "inputs": [
        {
          "internalType": "address",
          "name": "collection",
          "type": "address"
        },
        {
          "internalType": "uint256",
          "name": "tokenId",
          "type": "uint256"
        },
        {
          "internalType": "uint256",
          "name": "price",
          "type": "uint256"
        }
      ],
      "name": "listNFT",
      "outputs": [],
      "stateMutability": "nonpayable",
      "type": "function"
    },
    {
      "inputs": [
        {
          "internalType": "address",
          "name": "",
          "type": "address"
        },
        {
          "internalType": "uint256",
          "name": "",
          "type": "uint256"
        }
      ],
      "name": "listings",
      "outputs": [
        {
          "internalType": "address",
          "name": "seller",
          "type": "address"
        },
        {
          "internalType": "uint256",
          "name": "price",
          "type": "uint256"
        }
      ],
      "stateMutability": "view",
      "type": "function"
    }
  ],
  "bytecode": "0x6080604052348015600f57600080fd5b50610a4a8061001f6000396000f3fe6080604052600436106100335760003560e01c806207df3014610038578063a82ba76f14610076578063ad05f1b414610092575b600080fd5b34801561004457600080fd5b5061005f600480360381019061005a91906106e5565b6100bb565b60405161006d929190610743565b60405180910390f35b610090600480360381019061008b91906106e5565b61010c565b005b34801561009e57600080fd5b506100b960048036038101906100b4919061076c565b6103f8565b005b6000602052816000526040600020602052806000526040600020600091509150508060000160009054906101000a900473ffffffffffffffffffffffffffffffffffffffff16908060010154905082565b60008060008473ffffffffffffffffffffffffffffffffffffffff1673ffffffffffffffffffffffffffffffffffffffff16815260200190815260200160002060008381526020019081526020016000206040518060400160405290816000820160009054906101000a900473ffffffffffffffffffffffffffffffffffffffff1673ffffffffffffffffffffffffffffffffffffffff1673ffffffffffffffffffffffffffffffffffffffff16815260200160018201548152505090506000816020015111610211576040517f08c379a00000000000000000000000000000000000000000000000000000000081526004016102089061081c565b60405180910390fd5b80602001513414610257576040517f08c379a000000000000000000000000000000000000000000000000000000000815260040161024e90610888565b60405180910390fd5b60008390506000826000015190506000808673ffffffffffffffffffffffffffffffffffffffff1673ffffffffffffffffffffffffffffffffffffffff1681526020019081526020016000206000858152602001908152602001600020600080820160006101000a81549073ffffffffffffffffffffffffffffffffffffffff0219169055600182016000905550508173ffffffffffffffffffffffffffffffffffffffff166342842e0e8233876040518463ffffffff1660e01b8152600401610323939291906108a8565b600060405180830381600087803b15801561033d57600080fd5b505af1158015610351573d6000803e3d6000fd5b505050508073ffffffffffffffffffffffffffffffffffffffff166108fc349081150290604051600060405180830381858888f1935050505015801561039b573d6000803e3d6000fd5b50838573ffffffffffffffffffffffffffffffffffffffff167f5f56b86d7e7069e97b2fb6f4bbfe88ee51f79e56760d02a0ba2114eb274600f63386602001516040516103e9929190610743565b60405180910390a35050505050565b60008390503373ffffffffffffffffffffffffffffffffffffffff168173ffffffffffffffffffffffffffffffffffffffff16636352211e856040518263ffffffff1660e01b815260040161044d91906108df565b602060405180830381865afa15801561046a573d6000803e3d6000fd5b505050506040513d601f19601f8201168201806040525081019061048e919061090f565b73ffffffffffffffffffffffffffffffffffffffff16146104e4576040517f08c379a00000000000000000000000000000000000000000000000000000000081526004016104db90610988565b60405180910390fd5b60008211610527576040517f08c379a000000000000000000000000000000000000000000000000000000000815260040161051e906109f4565b60405180910390fd5b60405180604001604052803373ffffffffffffffffffffffffffffffffffffffff168152602001838152506000808673ffffffffffffffffffffffffffffffffffffffff1673ffffffffffffffffffffffffffffffffffffffff168152602001908152602001600020600085815260200190815260200160002060008201518160000160006101000a81548173ffffffffffffffffffffffffffffffffffffffff021916908373ffffffffffffffffffffffffffffffffffffffff16021790555060208201518160010155905050828473ffffffffffffffffffffffffffffffffffffffff167f392a0f172cb29479635d0b2219b2f96ef24f74dfdf328cb09f1496efe6cfddbe338560405161063e929190610743565b60405180910390a350505050565b600080fd5b600073ffffffffffffffffffffffffffffffffffffffff82169050919050565b600061067c82610651565b9050919050565b61068c81610671565b811461069757600080fd5b50565b6000813590506106a981610683565b92915050565b6000819050919050565b6106c2816106af565b81146106cd57600080fd5b50565b6000813590506106df816106b9565b92915050565b600080604083850312156106fc576106fb61064c565b5b600061070a8582860161069a565b925050602061071b858286016106d0565b9150509250929050565b61072e81610671565b82525050565b61073d816106af565b82525050565b60006040820190506107586000830185610725565b6107656020830184610734565b9392505050565b6000806000606084860312156107855761078461064c565b5b60006107938682870161069a565b93505060206107a4868287016106d0565b92505060406107b5868287016106d0565b9150509250925092565b600082825260208201905092915050565b7f4e4654206e6f74206c6973746564000000000000000000000000000000000000600082015250565b6000610806600e836107bf565b9150610811826107d0565b602082019050919050565b60006020820190508181036000830152610835816107f9565b9050919050565b7f496e636f72726563742070726963650000000000000000000000000000000000600082015250565b6000610872600f836107bf565b915061087d8261083c565b602082019050919050565b600060208201905081810360008301526108a181610865565b9050919050565b60006060820190506108bd6000830186610725565b6108ca6020830185610725565b6108d76040830184610734565b949350505050565b60006020820190506108f46000830184610734565b92915050565b60008151905061090981610683565b92915050565b6000602082840312156109255761092461064c565b5b6000610933848285016108fa565b91505092915050565b7f4e6f7420746865206f776e657200000000000000000000000000000000000000600082015250565b6000610972600d836107bf565b915061097d8261093c565b602082019050919050565b600060208201905081810360008301526109a181610965565b9050919050565b7f5072696365206d7573742062652067726561746572207468616e203000000000600082015250565b60006109de601c836107bf565b91506109e9826109a8565b602082019050919050565b60006020820190508181036000830152610a0d816109d1565b905091905056fea264697066735822122019235db5b3fa7a0ca0c564b8313177394fce57ad4a7703f5c769d429dcee7c3d64736f6c634300081c0033",
  "linkReferences": {},
  "deployedLinkReferences": {}
}