{
  "_format": "hh-sol-artifact-1",
  "contractName": "CollectionFactory",
  "sourceName": "contracts/CollectionFactory.sol",
  "abi": [
    {
      "anonymous": false,
      "inputs": [
        {
          "indexed": true,
          "internalType": "address",
          "name": "collectionAddress",
          "type": "address"
        },
        {
          "indexed": true,
          "internalType": "address",
          "name": "owner",
          "type": "address"
        },
        {
          "indexed": false,
          "internalType": "string",
          "name": "name",
          "type": "string"
        },
        {
          "indexed": false,
          "internalType": "string",
          "name": "symbol",
          "type": "string"
        },
        {
          "indexed": false,
          "internalType": "string",
          "name": "description",
          "type": "string"
        },
        {
          "indexed": false,
          "internalType": "address",
          "name": "royaltyReceiver",
          "type": "address"
        },
        {
          "indexed": false,
          "internalType": "uint96",
          "name": "royaltyFee",
          "type": "uint96"
        }
      ],
      "name": "CollectionCreated",
      "type": "event"
    },
    {
      "inputs": [
        {
          "internalType": "string",
          "name": "name",
          "type": "string"
        },
        {
          "internalType": "string",
          "name": "symbol",
          "type": "string"
        },
        {
          "internalType": "string",
          "name": "description",
          "type": "string"
        },
        {
          "internalType": "address",
          "name": "royaltyReceiver",
          "type": "address"
        },
        {
          "internalType": "uint96",
          "name": "royaltyFee",
          "type": "uint96"
        }
      ],
      "name": "createCollection",
      "outputs": [
        {
          "internalType": "address",
          "name": "",
          "type": "address"
        }
      ],
      "stateMutability": "nonpayable",
      "type": "function"
    }
  ],
  "bytecode": "0x6080604052348015600f57600080fd5b506136798061001f6000396000f3fe608060405234801561001057600080fd5b506004361061002b5760003560e01c80639c17b1c114610030575b600080fd5b61004a60048036038101906100459190610326565b610060565b6040516100579190610404565b60405180910390f35b6000808686863387876040516100759061011d565b610084969594939291906104ad565b604051809103906000f0801580156100a0573d6000803e3d6000fd5b5090503373ffffffffffffffffffffffffffffffffffffffff168173ffffffffffffffffffffffffffffffffffffffff167f7d8f8a218a2aa3ed8982685d7cfeac2e21fd78321f657ae42ce6d554884382228989898989604051610108959493929190610523565b60405180910390a38091505095945050505050565b6130b88061058c83390190565b6000604051905090565b600080fd5b600080fd5b600080fd5b600080fd5b6000601f19601f8301169050919050565b7f4e487b7100000000000000000000000000000000000000000000000000000000600052604160045260246000fd5b61019182610148565b810181811067ffffffffffffffff821117156101b0576101af610159565b5b80604052505050565b60006101c361012a565b90506101cf8282610188565b919050565b600067ffffffffffffffff8211156101ef576101ee610159565b5b6101f882610148565b9050602081019050919050565b82818337600083830152505050565b6000610227610222846101d4565b6101b9565b90508281526020810184848401111561024357610242610143565b5b61024e848285610205565b509392505050565b600082601f83011261026b5761026a61013e565b5b813561027b848260208601610214565b91505092915050565b600073ffffffffffffffffffffffffffffffffffffffff82169050919050565b60006102af82610284565b9050919050565b6102bf816102a4565b81146102ca57600080fd5b50565b6000813590506102dc816102b6565b92915050565b60006bffffffffffffffffffffffff82169050919050565b610303816102e2565b811461030e57600080fd5b50565b600081359050610320816102fa565b92915050565b600080600080600060a0868803121561034257610341610134565b5b600086013567ffffffffffffffff8111156103605761035f610139565b5b61036c88828901610256565b955050602086013567ffffffffffffffff81111561038d5761038c610139565b5b61039988828901610256565b945050604086013567ffffffffffffffff8111156103ba576103b9610139565b5b6103c688828901610256565b93505060606103d7888289016102cd565b92505060806103e888828901610311565b9150509295509295909350565b6103fe816102a4565b82525050565b600060208201905061041960008301846103f5565b92915050565b600081519050919050565b600082825260208201905092915050565b60005b8381101561045957808201518184015260208101905061043e565b60008484015250505050565b60006104708261041f565b61047a818561042a565b935061048a81856020860161043b565b61049381610148565b840191505092915050565b6104a7816102e2565b82525050565b600060c08201905081810360008301526104c78189610465565b905081810360208301526104db8188610465565b905081810360408301526104ef8187610465565b90506104fe60608301866103f5565b61050b60808301856103f5565b61051860a083018461049e565b979650505050505050565b600060a082019050818103600083015261053d8188610465565b905081810360208301526105518187610465565b905081810360408301526105658186610465565b905061057460608301856103f5565b610581608083018461049e565b969550505050505056fe608060405234801561001057600080fd5b506040516130b83803806130b883398181016040528101906100329190610452565b82868681600090816100449190610754565b5080600190816100549190610754565b505050600073ffffffffffffffffffffffffffffffffffffffff168173ffffffffffffffffffffffffffffffffffffffff16036100c95760006040517f1e4fbdf70000000000000000000000000000000000000000000000000000000081526004016100c09190610835565b60405180910390fd5b6100d88161017560201b60201c565b506100e88361017560201b60201c565b81600a60006101000a81548173ffffffffffffffffffffffffffffffffffffffff021916908373ffffffffffffffffffffffffffffffffffffffff16021790555080600a60146101000a8154816bffffffffffffffffffffffff02191690836bffffffffffffffffffffffff16021790555083600990816101699190610754565b50505050505050610850565b6000600760009054906101000a900473ffffffffffffffffffffffffffffffffffffffff16905081600760006101000a81548173ffffffffffffffffffffffffffffffffffffffff021916908373ffffffffffffffffffffffffffffffffffffffff1602179055508173ffffffffffffffffffffffffffffffffffffffff168173ffffffffffffffffffffffffffffffffffffffff167f8be0079c531659141344cd1fd0a4f28419497f9722a3daafe3b4186f6b6457e060405160405180910390a35050565b6000604051905090565b600080fd5b600080fd5b600080fd5b600080fd5b6000601f19601f8301169050919050565b7f4e487b7100000000000000000000000000000000000000000000000000000000600052604160045260246000fd5b6102a282610259565b810181811067ffffffffffffffff821117156102c1576102c061026a565b5b80604052505050565b60006102d461023b565b90506102e08282610299565b919050565b600067ffffffffffffffff821115610300576102ff61026a565b5b61030982610259565b9050602081019050919050565b60005b83811015610334578082015181840152602081019050610319565b60008484015250505050565b600061035361034e846102e5565b6102ca565b90508281526020810184848401111561036f5761036e610254565b5b61037a848285610316565b509392505050565b600082601f8301126103975761039661024f565b5b81516103a7848260208601610340565b91505092915050565b600073ffffffffffffffffffffffffffffffffffffffff82169050919050565b60006103db826103b0565b9050919050565b6103eb816103d0565b81146103f657600080fd5b50565b600081519050610408816103e2565b92915050565b60006bffffffffffffffffffffffff82169050919050565b61042f8161040e565b811461043a57600080fd5b50565b60008151905061044c81610426565b92915050565b60008060008060008060c0878903121561046f5761046e610245565b5b600087015167ffffffffffffffff81111561048d5761048c61024a565b5b61049989828a01610382565b965050602087015167ffffffffffffffff8111156104ba576104b961024a565b5b6104c689828a01610382565b955050604087015167ffffffffffffffff8111156104e7576104e661024a565b5b6104f389828a01610382565b945050606061050489828a016103f9565b935050608061051589828a016103f9565b92505060a061052689828a0161043d565b9150509295509295509295565b600081519050919050565b7f4e487b7100000000000000000000000000000000000000000000000000000000600052602260045260246000fd5b6000600282049050600182168061058557607f821691505b6020821081036105985761059761053e565b5b50919050565b60008190508160005260206000209050919050565b60006020601f8301049050919050565b600082821b905092915050565b6000600883026106007fffffffffffffffffffffffffffffffffffffffffffffffffffffffffffffffff826105c3565b61060a86836105c3565b95508019841693508086168417925050509392505050565b6000819050919050565b6000819050919050565b600061065161064c61064784610622565b61062c565b610622565b9050919050565b6000819050919050565b61066b83610636565b61067f61067782610658565b8484546105d0565b825550505050565b600090565b610694610687565b61069f818484610662565b505050565b5b818110156106c3576106b860008261068c565b6001810190506106a5565b5050565b601f821115610708576106d98161059e565b6106e2846105b3565b810160208510156106f1578190505b6107056106fd856105b3565b8301826106a4565b50505b505050565b600082821c905092915050565b600061072b6000198460080261070d565b1980831691505092915050565b6000610744838361071a565b9150826002028217905092915050565b61075d82610533565b67ffffffffffffffff8111156107765761077561026a565b5b610780825461056d565b61078b8282856106c7565b600060209050601f8311600181146107be57600084156107ac578287015190505b6107b68582610738565b86555061081e565b601f1984166107cc8661059e565b60005b828110156107f4578489015182556001820191506020850194506020810190506107cf565b86831015610811578489015161080d601f89168261071a565b8355505b6001600288020188555050505b505050505050565b61082f816103d0565b82525050565b600060208201905061084a6000830184610826565b92915050565b6128598061085f6000396000f3fe608060405234801561001057600080fd5b50600436106101215760003560e01c8063715018a6116100ad578063b88d4fde11610071578063b88d4fde14610309578063c87b56dd14610325578063e985e9c514610355578063eacabe1414610385578063f2fde38b146103b557610121565b8063715018a6146102895780637284e416146102935780638da5cb5b146102b157806395d89b41146102cf578063a22cb465146102ed57610121565b806323b872dd116100f457806323b872dd146101c05780632a55205a146101dc57806342842e0e1461020d5780636352211e1461022957806370a082311461025957610121565b806301ffc9a71461012657806306fdde0314610156578063081812fc14610174578063095ea7b3146101a4575b600080fd5b610140600480360381019061013b9190611bfe565b6103d1565b60405161014d9190611c46565b60405180910390f35b61015e610432565b60405161016b9190611cf1565b60405180910390f35b61018e60048036038101906101899190611d49565b6104c4565b60405161019b9190611db7565b60405180910390f35b6101be60048036038101906101b99190611dfe565b6104e0565b005b6101da60048036038101906101d59190611e3e565b6104f6565b005b6101f660048036038101906101f19190611e91565b6105f8565b604051610204929190611ee0565b60405180910390f35b61022760048036038101906102229190611e3e565b61066a565b005b610243600480360381019061023e9190611d49565b61068a565b6040516102509190611db7565b60405180910390f35b610273600480360381019061026e9190611f09565b61069c565b6040516102809190611f36565b60405180910390f35b610291610756565b005b61029b61076a565b6040516102a89190611cf1565b60405180910390f35b6102b96107f8565b6040516102c69190611db7565b60405180910390f35b6102d7610822565b6040516102e49190611cf1565b60405180910390f35b61030760048036038101906103029190611f7d565b6108b4565b005b610323600480360381019061031e91906120f2565b6108ca565b005b61033f600480360381019061033a9190611d49565b6108ef565b60405161034c9190611cf1565b60405180910390f35b61036f600480360381019061036a9190612175565b610a02565b60405161037c9190611c46565b60405180910390f35b61039f600480360381019061039a9190612256565b610a96565b6040516103ac9190611f36565b60405180910390f35b6103cf60048036038101906103ca9190611f09565b610add565b005b6000634906490660e01b7bffffffffffffffffffffffffffffffffffffffffffffffffffffffff1916827bffffffffffffffffffffffffffffffffffffffffffffffffffffffff1916148061042b575061042a82610b63565b5b9050919050565b606060008054610441906122e1565b80601f016020809104026020016040519081016040528092919081815260200182805461046d906122e1565b80156104ba5780601f1061048f576101008083540402835291602001916104ba565b820191906000526020600020905b81548152906001019060200180831161049d57829003601f168201915b5050505050905090565b60006104cf82610c45565b506104d982610ccd565b9050919050565b6104f282826104ed610d0a565b610d12565b5050565b600073ffffffffffffffffffffffffffffffffffffffff168273ffffffffffffffffffffffffffffffffffffffff16036105685760006040517f64a0ae9200000000000000000000000000000000000000000000000000000000815260040161055f9190611db7565b60405180910390fd5b600061057c8383610577610d0a565b610d24565b90508373ffffffffffffffffffffffffffffffffffffffff168173ffffffffffffffffffffffffffffffffffffffff16146105f2578382826040517f64283d7b0000000000000000000000000000000000000000000000000000000081526004016105e993929190612312565b60405180910390fd5b50505050565b600080600a60009054906101000a900473ffffffffffffffffffffffffffffffffffffffff16612710600a60149054906101000a90046bffffffffffffffffffffffff166bffffffffffffffffffffffff16856106559190612378565b61065f91906123e9565b915091509250929050565b610685838383604051806020016040528060008152506108ca565b505050565b600061069582610c45565b9050919050565b60008073ffffffffffffffffffffffffffffffffffffffff168273ffffffffffffffffffffffffffffffffffffffff160361070f5760006040517f89c62b640000000000000000000000000000000000000000000000000000000081526004016107069190611db7565b60405180910390fd5b600360008373ffffffffffffffffffffffffffffffffffffffff1673ffffffffffffffffffffffffffffffffffffffff168152602001908152602001600020549050919050565b61075e610f3e565b6107686000610fc5565b565b60098054610777906122e1565b80601f01602080910402602001604051908101604052809291908181526020018280546107a3906122e1565b80156107f05780601f106107c5576101008083540402835291602001916107f0565b820191906000526020600020905b8154815290600101906020018083116107d357829003601f168201915b505050505081565b6000600760009054906101000a900473ffffffffffffffffffffffffffffffffffffffff16905090565b606060018054610831906122e1565b80601f016020809104026020016040519081016040528092919081815260200182805461085d906122e1565b80156108aa5780601f1061087f576101008083540402835291602001916108aa565b820191906000526020600020905b81548152906001019060200180831161088d57829003601f168201915b5050505050905090565b6108c66108bf610d0a565b838361108b565b5050565b6108d58484846104f6565b6108e96108e0610d0a565b858585856111fa565b50505050565b60606108fa82610c45565b50600060066000848152602001908152602001600020805461091b906122e1565b80601f0160208091040260200160405190810160405280929190818152602001828054610947906122e1565b80156109945780601f1061096957610100808354040283529160200191610994565b820191906000526020600020905b81548152906001019060200180831161097757829003601f168201915b5050505050905060006109a56113ab565b905060008151036109ba5781925050506109fd565b6000825111156109ef5780826040516020016109d7929190612456565b604051602081830303815290604052925050506109fd565b6109f8846113c2565b925050505b919050565b6000600560008473ffffffffffffffffffffffffffffffffffffffff1673ffffffffffffffffffffffffffffffffffffffff16815260200190815260200160002060008373ffffffffffffffffffffffffffffffffffffffff1673ffffffffffffffffffffffffffffffffffffffff16815260200190815260200160002060009054906101000a900460ff16905092915050565b6000610aa0610f3e565b60086000815480929190610ab39061247a565b919050555060006008549050610ac9848261142b565b610ad38184611524565b8091505092915050565b610ae5610f3e565b600073ffffffffffffffffffffffffffffffffffffffff168173ffffffffffffffffffffffffffffffffffffffff1603610b575760006040517f1e4fbdf7000000000000000000000000000000000000000000000000000000008152600401610b4e9190611db7565b60405180910390fd5b610b6081610fc5565b50565b60007f80ac58cd000000000000000000000000000000000000000000000000000000007bffffffffffffffffffffffffffffffffffffffffffffffffffffffff1916827bffffffffffffffffffffffffffffffffffffffffffffffffffffffff19161480610c2e57507f5b5e139f000000000000000000000000000000000000000000000000000000007bffffffffffffffffffffffffffffffffffffffffffffffffffffffff1916827bffffffffffffffffffffffffffffffffffffffffffffffffffffffff1916145b80610c3e5750610c3d82611580565b5b9050919050565b600080610c51836115ea565b9050600073ffffffffffffffffffffffffffffffffffffffff168173ffffffffffffffffffffffffffffffffffffffff1603610cc457826040517f7e273289000000000000000000000000000000000000000000000000000000008152600401610cbb9190611f36565b60405180910390fd5b80915050919050565b60006004600083815260200190815260200160002060009054906101000a900473ffffffffffffffffffffffffffffffffffffffff169050919050565b600033905090565b610d1f8383836001611627565b505050565b600080610d30846115ea565b9050600073ffffffffffffffffffffffffffffffffffffffff168373ffffffffffffffffffffffffffffffffffffffff1614610d7257610d718184866117ec565b5b600073ffffffffffffffffffffffffffffffffffffffff168173ffffffffffffffffffffffffffffffffffffffff1614610e0357610db4600085600080611627565b6001600360008373ffffffffffffffffffffffffffffffffffffffff1673ffffffffffffffffffffffffffffffffffffffff168152602001908152602001600020600082825403925050819055505b600073ffffffffffffffffffffffffffffffffffffffff168573ffffffffffffffffffffffffffffffffffffffff1614610e86576001600360008773ffffffffffffffffffffffffffffffffffffffff1673ffffffffffffffffffffffffffffffffffffffff168152602001908152602001600020600082825401925050819055505b846002600086815260200190815260200160002060006101000a81548173ffffffffffffffffffffffffffffffffffffffff021916908373ffffffffffffffffffffffffffffffffffffffff160217905550838573ffffffffffffffffffffffffffffffffffffffff168273ffffffffffffffffffffffffffffffffffffffff167fddf252ad1be2c89b69c2b068fc378daa952ba7f163c4a11628f55a4df523b3ef60405160405180910390a4809150509392505050565b610f46610d0a565b73ffffffffffffffffffffffffffffffffffffffff16610f646107f8565b73ffffffffffffffffffffffffffffffffffffffff1614610fc357610f87610d0a565b6040517f118cdaa7000000000000000000000000000000000000000000000000000000008152600401610fba9190611db7565b60405180910390fd5b565b6000600760009054906101000a900473ffffffffffffffffffffffffffffffffffffffff16905081600760006101000a81548173ffffffffffffffffffffffffffffffffffffffff021916908373ffffffffffffffffffffffffffffffffffffffff1602179055508173ffffffffffffffffffffffffffffffffffffffff168173ffffffffffffffffffffffffffffffffffffffff167f8be0079c531659141344cd1fd0a4f28419497f9722a3daafe3b4186f6b6457e060405160405180910390a35050565b600073ffffffffffffffffffffffffffffffffffffffff168273ffffffffffffffffffffffffffffffffffffffff16036110fc57816040517f5b08ba180000000000000000000000000000000000000000000000000000000081526004016110f39190611db7565b60405180910390fd5b80600560008573ffffffffffffffffffffffffffffffffffffffff1673ffffffffffffffffffffffffffffffffffffffff16815260200190815260200160002060008473ffffffffffffffffffffffffffffffffffffffff1673ffffffffffffffffffffffffffffffffffffffff16815260200190815260200160002060006101000a81548160ff0219169083151502179055508173ffffffffffffffffffffffffffffffffffffffff168373ffffffffffffffffffffffffffffffffffffffff167f17307eab39ab6107e8899845ad3d59bd9653f200f220920489ca2b5937696c31836040516111ed9190611c46565b60405180910390a3505050565b60008373ffffffffffffffffffffffffffffffffffffffff163b11156113a4578273ffffffffffffffffffffffffffffffffffffffff1663150b7a02868685856040518563ffffffff1660e01b81526004016112599493929190612517565b6020604051808303816000875af192505050801561129557506040513d601f19601f820116820180604052508101906112929190612578565b60015b611319573d80600081146112c5576040519150601f19603f3d011682016040523d82523d6000602084013e6112ca565b606091505b50600081510361131157836040517f64a0ae920000000000000000000000000000000000000000000000000000000081526004016113089190611db7565b60405180910390fd5b805181602001fd5b63150b7a0260e01b7bffffffffffffffffffffffffffffffffffffffffffffffffffffffff1916817bffffffffffffffffffffffffffffffffffffffffffffffffffffffff1916146113a257836040517f64a0ae920000000000000000000000000000000000000000000000000000000081526004016113999190611db7565b60405180910390fd5b505b5050505050565b606060405180602001604052806000815250905090565b60606113cd82610c45565b5060006113d86113ab565b905060008151116113f85760405180602001604052806000815250611423565b80611402846118b0565b604051602001611413929190612456565b6040516020818303038152906040525b915050919050565b600073ffffffffffffffffffffffffffffffffffffffff168273ffffffffffffffffffffffffffffffffffffffff160361149d5760006040517f64a0ae920000000000000000000000000000000000000000000000000000000081526004016114949190611db7565b60405180910390fd5b60006114ab83836000610d24565b9050600073ffffffffffffffffffffffffffffffffffffffff168173ffffffffffffffffffffffffffffffffffffffff161461151f5760006040517f73c6ac6e0000000000000000000000000000000000000000000000000000000081526004016115169190611db7565b60405180910390fd5b505050565b806006600084815260200190815260200160002090816115449190612751565b507ff8e1a15aba9398e019f0b49df1a4fde98ee17ae345cb5f6b5e2c27f5033e8ce7826040516115749190611f36565b60405180910390a15050565b60007f01ffc9a7000000000000000000000000000000000000000000000000000000007bffffffffffffffffffffffffffffffffffffffffffffffffffffffff1916827bffffffffffffffffffffffffffffffffffffffffffffffffffffffff1916149050919050565b60006002600083815260200190815260200160002060009054906101000a900473ffffffffffffffffffffffffffffffffffffffff169050919050565b80806116605750600073ffffffffffffffffffffffffffffffffffffffff168273ffffffffffffffffffffffffffffffffffffffff1614155b1561179457600061167084610c45565b9050600073ffffffffffffffffffffffffffffffffffffffff168373ffffffffffffffffffffffffffffffffffffffff16141580156116db57508273ffffffffffffffffffffffffffffffffffffffff168173ffffffffffffffffffffffffffffffffffffffff1614155b80156116ee57506116ec8184610a02565b155b1561173057826040517fa9fbf51f0000000000000000000000000000000000000000000000000000000081526004016117279190611db7565b60405180910390fd5b811561179257838573ffffffffffffffffffffffffffffffffffffffff168273ffffffffffffffffffffffffffffffffffffffff167f8c5be1e5ebec7d5bd14f71427d1e84f3dd0314c0f7b2291e5b200ac8c7c3b92560405160405180910390a45b505b836004600085815260200190815260200160002060006101000a81548173ffffffffffffffffffffffffffffffffffffffff021916908373ffffffffffffffffffffffffffffffffffffffff16021790555050505050565b6117f783838361197e565b6118ab57600073ffffffffffffffffffffffffffffffffffffffff168373ffffffffffffffffffffffffffffffffffffffff160361186c57806040517f7e2732890000000000000000000000000000000000000000000000000000000081526004016118639190611f36565b60405180910390fd5b81816040517f177e802f0000000000000000000000000000000000000000000000000000000081526004016118a2929190611ee0565b60405180910390fd5b505050565b6060600060016118bf84611a3f565b01905060008167ffffffffffffffff8111156118de576118dd611fc7565b5b6040519080825280601f01601f1916602001820160405280156119105781602001600182028036833780820191505090505b509050600082602001820190505b600115611973578080600190039150507f3031323334353637383961626364656600000000000000000000000000000000600a86061a8153600a8581611967576119666123ba565b5b0494506000850361191e575b819350505050919050565b60008073ffffffffffffffffffffffffffffffffffffffff168373ffffffffffffffffffffffffffffffffffffffff1614158015611a3657508273ffffffffffffffffffffffffffffffffffffffff168473ffffffffffffffffffffffffffffffffffffffff1614806119f757506119f68484610a02565b5b80611a3557508273ffffffffffffffffffffffffffffffffffffffff16611a1d83610ccd565b73ffffffffffffffffffffffffffffffffffffffff16145b5b90509392505050565b600080600090507a184f03e93ff9f4daa797ed6e38ed64bf6a1f0100000000000000008310611a9d577a184f03e93ff9f4daa797ed6e38ed64bf6a1f0100000000000000008381611a9357611a926123ba565b5b0492506040810190505b6d04ee2d6d415b85acef81000000008310611ada576d04ee2d6d415b85acef81000000008381611ad057611acf6123ba565b5b0492506020810190505b662386f26fc100008310611b0957662386f26fc100008381611aff57611afe6123ba565b5b0492506010810190505b6305f5e1008310611b32576305f5e1008381611b2857611b276123ba565b5b0492506008810190505b6127108310611b57576127108381611b4d57611b4c6123ba565b5b0492506004810190505b60648310611b7a5760648381611b7057611b6f6123ba565b5b0492506002810190505b600a8310611b89576001810190505b80915050919050565b6000604051905090565b600080fd5b600080fd5b60007fffffffff0000000000000000000000000000000000000000000000000000000082169050919050565b611bdb81611ba6565b8114611be657600080fd5b50565b600081359050611bf881611bd2565b92915050565b600060208284031215611c1457611c13611b9c565b5b6000611c2284828501611be9565b91505092915050565b60008115159050919050565b611c4081611c2b565b82525050565b6000602082019050611c5b6000830184611c37565b92915050565b600081519050919050565b600082825260208201905092915050565b60005b83811015611c9b578082015181840152602081019050611c80565b60008484015250505050565b6000601f19601f8301169050919050565b6000611cc382611c61565b611ccd8185611c6c565b9350611cdd818560208601611c7d565b611ce681611ca7565b840191505092915050565b60006020820190508181036000830152611d0b8184611cb8565b905092915050565b6000819050919050565b611d2681611d13565b8114611d3157600080fd5b50565b600081359050611d4381611d1d565b92915050565b600060208284031215611d5f57611d5e611b9c565b5b6000611d6d84828501611d34565b91505092915050565b600073ffffffffffffffffffffffffffffffffffffffff82169050919050565b6000611da182611d76565b9050919050565b611db181611d96565b82525050565b6000602082019050611dcc6000830184611da8565b92915050565b611ddb81611d96565b8114611de657600080fd5b50565b600081359050611df881611dd2565b92915050565b60008060408385031215611e1557611e14611b9c565b5b6000611e2385828601611de9565b9250506020611e3485828601611d34565b9150509250929050565b600080600060608486031215611e5757611e56611b9c565b5b6000611e6586828701611de9565b9350506020611e7686828701611de9565b9250506040611e8786828701611d34565b9150509250925092565b60008060408385031215611ea857611ea7611b9c565b5b6000611eb685828601611d34565b9250506020611ec785828601611d34565b9150509250929050565b611eda81611d13565b82525050565b6000604082019050611ef56000830185611da8565b611f026020830184611ed1565b9392505050565b600060208284031215611f1f57611f1e611b9c565b5b6000611f2d84828501611de9565b91505092915050565b6000602082019050611f4b6000830184611ed1565b92915050565b611f5a81611c2b565b8114611f6557600080fd5b50565b600081359050611f7781611f51565b92915050565b60008060408385031215611f9457611f93611b9c565b5b6000611fa285828601611de9565b9250506020611fb385828601611f68565b9150509250929050565b600080fd5b600080fd5b7f4e487b7100000000000000000000000000000000000000000000000000000000600052604160045260246000fd5b611fff82611ca7565b810181811067ffffffffffffffff8211171561201e5761201d611fc7565b5b80604052505050565b6000612031611b92565b905061203d8282611ff6565b919050565b600067ffffffffffffffff82111561205d5761205c611fc7565b5b61206682611ca7565b9050602081019050919050565b82818337600083830152505050565b600061209561209084612042565b612027565b9050828152602081018484840111156120b1576120b0611fc2565b5b6120bc848285612073565b509392505050565b600082601f8301126120d9576120d8611fbd565b5b81356120e9848260208601612082565b91505092915050565b6000806000806080858703121561210c5761210b611b9c565b5b600061211a87828801611de9565b945050602061212b87828801611de9565b935050604061213c87828801611d34565b925050606085013567ffffffffffffffff81111561215d5761215c611ba1565b5b612169878288016120c4565b91505092959194509250565b6000806040838503121561218c5761218b611b9c565b5b600061219a85828601611de9565b92505060206121ab85828601611de9565b9150509250929050565b600067ffffffffffffffff8211156121d0576121cf611fc7565b5b6121d982611ca7565b9050602081019050919050565b60006121f96121f4846121b5565b612027565b90508281526020810184848401111561221557612214611fc2565b5b612220848285612073565b509392505050565b600082601f83011261223d5761223c611fbd565b5b813561224d8482602086016121e6565b91505092915050565b6000806040838503121561226d5761226c611b9c565b5b600061227b85828601611de9565b925050602083013567ffffffffffffffff81111561229c5761229b611ba1565b5b6122a885828601612228565b9150509250929050565b7f4e487b7100000000000000000000000000000000000000000000000000000000600052602260045260246000fd5b600060028204905060018216806122f957607f821691505b60208210810361230c5761230b6122b2565b5b50919050565b60006060820190506123276000830186611da8565b6123346020830185611ed1565b6123416040830184611da8565b949350505050565b7f4e487b7100000000000000000000000000000000000000000000000000000000600052601160045260246000fd5b600061238382611d13565b915061238e83611d13565b925082820261239c81611d13565b915082820484148315176123b3576123b2612349565b5b5092915050565b7f4e487b7100000000000000000000000000000000000000000000000000000000600052601260045260246000fd5b60006123f482611d13565b91506123ff83611d13565b92508261240f5761240e6123ba565b5b828204905092915050565b600081905092915050565b600061243082611c61565b61243a818561241a565b935061244a818560208601611c7d565b80840191505092915050565b60006124628285612425565b915061246e8284612425565b91508190509392505050565b600061248582611d13565b91507fffffffffffffffffffffffffffffffffffffffffffffffffffffffffffffffff82036124b7576124b6612349565b5b600182019050919050565b600081519050919050565b600082825260208201905092915050565b60006124e9826124c2565b6124f381856124cd565b9350612503818560208601611c7d565b61250c81611ca7565b840191505092915050565b600060808201905061252c6000830187611da8565b6125396020830186611da8565b6125466040830185611ed1565b818103606083015261255881846124de565b905095945050505050565b60008151905061257281611bd2565b92915050565b60006020828403121561258e5761258d611b9c565b5b600061259c84828501612563565b91505092915050565b60008190508160005260206000209050919050565b60006020601f8301049050919050565b600082821b905092915050565b6000600883026126077fffffffffffffffffffffffffffffffffffffffffffffffffffffffffffffffff826125ca565b61261186836125ca565b95508019841693508086168417925050509392505050565b6000819050919050565b600061264e61264961264484611d13565b612629565b611d13565b9050919050565b6000819050919050565b61266883612633565b61267c61267482612655565b8484546125d7565b825550505050565b600090565b612691612684565b61269c81848461265f565b505050565b5b818110156126c0576126b5600082612689565b6001810190506126a2565b5050565b601f821115612705576126d6816125a5565b6126df846125ba565b810160208510156126ee578190505b6127026126fa856125ba565b8301826126a1565b50505b505050565b600082821c905092915050565b60006127286000198460080261270a565b1980831691505092915050565b60006127418383612717565b9150826002028217905092915050565b61275a82611c61565b67ffffffffffffffff81111561277357612772611fc7565b5b61277d82546122e1565b6127888282856126c4565b600060209050601f8311600181146127bb57600084156127a9578287015190505b6127b38582612735565b86555061281b565b601f1984166127c9866125a5565b60005b828110156127f1578489015182556001820191506020850194506020810190506127cc565b8683101561280e578489015161280a601f891682612717565b8355505b6001600288020188555050505b50505050505056fea264697066735822122071fbf912f7ccb882681ddf6607072a7c476bb40789fa26da64b32af6c8ee990964736f6c634300081c0033a264697066735822122005949fb16d53352a328b30ff7962a98136fd71f669174cfeba90da1bc8eb8bcb64736f6c634300081c0033",
  "linkReferences": {},
  "deployedLinkReferences": {}
}